:2000000000400020914D010001C9011001C9011001C9011001C9011001C9011001C901107F
:1C00200001C9011001C9011001C9011001C9011001C9011001C901103FC9011089
:20003C0080B540F21C420FF2A00121480EF080FE01212048017202210022417602700322C8
:20005C001D490A700422CA700521417706201B491B4A08700721117001BD2DE9F0410FF250
:20007C00844218493820136854689568D6681769D2F814C0D2F818E0D2F81C800B604C6016
:20009C008D60CE600F61C1F814C0C1F818E0C1F81C8020322031401EE5D110685368946840
:2000BC00D26808604B608C60CA60BDE8F08100004804002151030021C1030021740300214C
:2000DC009803002100C0002115050021CB06002123070021750400218104002199040021F1
:2000FC00090800211D08002170B51D46004C204787B200007046000A054AC42804D01047D2
:20011C00034AE4320120049002490020087010479D670000DC01002103490888034A71468F
:20013C00904200D0891C08478A0100210414000010B5014800470000D509000070B5C00130
:20015C00004C2047D5460000F8B5B74CB748254660352F7B00262E7380472F73697B014304
:20017C0017D1002F15D0617E00290ED0214620310A7C5308DB0700D12676236A497B002B1D
:20019C0001D104231943114202D0217DC90600D4E675F8BD0188A64A8918032906D8A54867
:2001BC007C210185A449416201207047A34908479D4830B4014640310A7C022A16D10268D9
:2001DC00D2794A7502689368024680329360487D02280BD0002809D0C41E062C09D8954909
:2001FC00800040184038806B18189060944830BC00470320C002C8800220087230BC0320A1
:20021C00704770B5884804464034A57D012D12D0017D4906CA0F80210A54217C00290AD1E0
:20023C00603040788008C00702D0E07C000702D50120A07500E00020A07382488047A5750B
:20025C0070BD70B5784C8048254650358047022809D14034E1887D4A914204D1E97C8906A9
:20027C0001D4911DE18070BD70B56F490A8908465030D2B2282A07D10A68D2684261937A09
:20029C00D27A12029A1802830378714A002B10D08379012B0DD1037C5B09DB0709D0097D40
:2002BC006C4DC1746C7F20202043687790476C7770BDFF21C174904770BD10B566485A4C6E
:2002DC00804702280ED121464031CA885F4B9A4208D1CA7C5209D20704D0227D920601D44F
:2002FC009A1DCA8010BD70B54F485C494030C07C4009C00707D0574D59482C8B2043288316
:20031C0088472C8370BD884770BD70B5464C5549264640363579A8004018C06880470A2D0F
:20033C00214610D054310A789309DB0704D0B2730A7803231A430A702189CAB22B2A01D30E
:20035C002839218170BD5331EDE73749403108711E2822D008DC082813D00A2813D00B2818
:20037C0013D0182808D112E0252812D02A2812D03C2808D03D2812D03A4980004018C0680A
:20039C00704739487047394870473948704739487047394870473948704739487047394881
:2003BC007047F8B50746204C4E20005D8509EE07FB25002E17D0267D3407240F052C03D06C
:2003DC000124204202D012E00224FAE7C00905D0700603D54868800F012808D05B085B00C5
:2003FC005208520003E0002801D02B402A40062B03D01020022B10D010E002232A40384646
:20041C00FFF772FE002807DAC200B91A2039497E1422114200D10020F8BD02430343384664
:20043C00FFF762FEF8BD00004401002167A70000D5E7FFFFEC000021579600006396000074
:20045C0075D50000F3BC000037CB000004140000EBC80000A8000021F5B4000053AD000048
:20047C002020000080DF0000C90400218B060021670600213B060021E9050021C305002139
:20049C00830500213105002110B5034CFFF750FE20680028FAD110BD0011044010B50D4831
:2004BC00846B406B4101E004C00E014372B60A4B186882B2581510431860084880681A6033
:2004DC0062B6074A5379902253432207120FFFF735FE10BD80500440000004400040044067
:2004FC008002002168610000F825F965F9754500450045002600260057A3520052004C0086
:20051C00401F401F401F3F0000000000304000400140034007400F404F40CF40CF41CF43D9
:20053C00CF47CF4FCF3FCF2FCF1FCF0F000000000000000000000F00080000003F0000003D
:20055C0040003F000000040068000E00DC00060043001A0005000000000002000000000040
:20057C00000000000400C00000000400C000000007000000000000000000000000000000D0
:20059C0000000000304000400140034007400F404F40CF40CF7FCF6FCF5FCF4FCF3FCF2FF3
:2005BC00CF1FCF0F000000000000000050C00091007070C00091007082312100319110B1BA
:2005DC000070018101B100A18231329110B101911110418141227740F106007051C00191EA
:2005FC0030181039833108D01831416F3100319110B18314141683680070251050C0009123
:20061C00F4C340C12014036F311041045082F0229840512622C082312100319110B16339D2
:20063C003110410482C082312100319110B163393110A2C082312100319110B15010153143
:20065C00051405920070676452C0311031066131C1026A6412C13110213971065131E1029C
:20067C006A64007051C0019101CCE2C06A64676411C1C2C06A6450B054B0007140804022BC
:20069C00D6440022C94060B08180111EC944007054A064B0F0800022C9404012B09032B025
:2006BC0070C1DF6811C122C16A6470C1E46851C00191E2C0823160820200329110B130C254
:2006DC00EE68538253395339B16460C3F4688012B09032B00070676401C122C16A6401C103
:2006FC00C2C06A645382B164C012B09032B00070676472C281C06A6422C111C16A6402C0ED
:20071C0011C16A6462C031C36A6462C311C16A6402C311C16A6453825339B164E2C36F6421
:20073C0011221C4142C281C86A6452C211C16A6472C2E1CE6A6402C281C86A6402C201C825
:20075C006A64B0C030690070676442C201C86A6452C211C06A6472C2E1C06A6402C001C1F6
:20077C006A6462C001C36A6422C101C16A6462C301C16A6402C301C16A645382B164007004
:20079C008180111E5C4150B054B00071408040225D4154A064B0F180012251450070002277
:2007BC00514160B04E610000000000000000000000000000067305720B720E7250B000716E
:2007DC00818060B050A09280F0EFF19202936A6741228C458080F1C11004301601110114BB
:2007FC00016CB561B661B761B861B961BA61BB61BD61BF61C161C36126632D63F0C002046E
:20081C003231412A1214321601112114016CDA61C561E061C761CB61B561B561B561F4613F
:20083C00C561FA61C761CB61B561B561B561F461C561FA61C761CB61B561B561B561E761D1
:20085C00C561ED61C761CB61B561B561B561CF61CF61CF61CF61CF61CF61C064CF61F964A1
:20087C00CF610665CF613265CF617467CF611166CF61C0644E65F964CF610665116632653B
:20089C00CF618280E0DFF2926A67B0B0D661B1B00673057230B06C61D0CF6A6784C203C0E8
:2008BC00C0C37C64207851788278E3781579B6780062C0CF6A6784C203C0C0C37C64307871
:2008DC0061789278F3781579C6780062B0CF6A6784C203C0C0C37C6440787178A27803798D
:2008FC001579D67810922192329243925492659256911FC0FF914039F006011010311014FA
:20091C0000927067CF61E3B054A0F08050221A4640800022BE461262E3A000C860915981E9
:20093C0050B0918041228E46A0CF6A6712828231823942398B641282F2062F101F312F1449
:20095C001682D622334640C1346200C520140D6F6D39DE10F4C34E0482C082312E006D3900
:20097C00A2C082312D001A828A39FA062082803180390BC00B18BC10AC18038239149B14AF
:20099C001082F006011010311014518110140C14C622C94631D0C1266462021011C001306E
:2009BC0010C00118021882312100C126919103B013B063B053B041800122BE46B481C4913D
:2009DC00D581B51C774E95186591F080102269428C623D9110B13E9110B1E08000228146C9
:2009FC00E6228142E0B0951865910F925981F914F0805022114210228C464D6390CF6A673C
:200A1C0063B052A03082F2C02004021011C0013010C00118021882312100C1269191919117
:200A3C0013B003B063B053B064B054B0007141800122BE4663B064B0F08050221142B1810F
:200A5C00C191D1819118619131B0A4622967E0A059810582591480C0007163B0BA6A6962C3
:200A7C00E3A0018262818231823D80EFF19202936A6703A000703782473987393082803930
:200A9C00F006021011C0013010C00118021882312100C126819102B012B030824039F006CB
:200ABC00021011C0013010C00118021882312100C126919103B013B063B053B0007153A036
:200ADC0062B052B041800122BE46A481C491D581B51CFE4E95186591F0801022F0428C62AC
:200AFC00B481C491D4814518751C084FF0801022F0428C623D9110B13E9110B1E080002253
:200B1C001247E6221243E0B065910F925981F914F0805022114210228C4630632967E0A019
:200B3C00598105825914F0C0007162B0226BF062A2808B64CF6112824239F2068B6050B086
:200B5C000071CF6170CF6A67408241800122BE46A481C491D58195186591F18011228C4635
:200B7C00336B41800122BE46A481C491D581C51C1C4B95186591F08010223F438C6260CFD7
:200B9C006A67408241800122BE46B481C491D58195186591F18011228C46506B4180012226
:200BBC00BE46B481C491D581C51CB44A95186591F08010225C438C62E092D08200226B47EC
:200BDC00C0B20070A080F022874330B002C1623101C0A080001E8043F022814380F8603144
:200BFC00603981632010101A136F236E11161216826B00702DE9F047DFF8A0916849694E86
:200C1C0089F80000002008600921674801700D2141804FF48971818064480660B77E644845
:200C3C000770FF2FF17E417008BFFF29327F8270737FC370B57F0571F67F467114D1FF2A38
:200C5C0008BFFF2B10D1FF2D08BFFF2E0CD159490A7802704A7842708A788270CA78C27037
:200C7C000A7902714979417153490278534D544EDFF850810A7042784A7082788A70C278D2
:200C9C00CA7002790A7140794F4A4871FF2028706870A870E8702871687100204B49088050
:200CBC00776B4B497878087039781170B87849490870796908794849421E0A70F878474900
:200CDC0088F80000B869086008B916F021FFF869434C206008B916F01BFF2068DFF804A1B3
:200CFC0001688847216851F8042F504690473E483E49CAF820003E48CAF82400386A0860C9
:200D1C0008B916F005FF786A3A4C206008B916F0FFFEB86A3849086008B916F0F9FE0BF07C
:200D3C0097FA07280CD10EF06FFC99F800004FF480410CF035FBBDE8F047002016F0E8BE28
:200D5C002E480168884721680A6807469047226852F8041F00208847F16898F800000A8849
:200D7C00274B284902431A8038460A6890470C21254800F04DF8284600F04EF800F050F823
:200D9C002248002101604FF6FF7181804FF4005199F80000BDE8F0470CF002BB6E4F0020FE
:200DBC00044F0020B63F0050604E0020084F00202C4E0020E81200503C4E0020344E0020EA
:200DDC0070A001006C4F00207B4F00200C4F00206D4F00206B4F0020724F0020F04E0020B1
:200DFC00F44E00207C4B0020CD830100F84E0020ED830100FC4E002000200020E80E0020A6
:200E1C00544F0020EC0E0020F84D0020D01F0020DFF800F0E5710110DFF800F01D6E0110D4
:200E3C00DFF800F04D7101107CB56D4D0446A8680E4628B94FF0FF30002111F0B5FFA8603A
:200E5C0000213CA30A4615F09AFF20463DA3801E08D0801E61D0401E4CD0401E37D0401EC0
:200E7C0022D00EE0A868012E05D000210A4615F086FF37A357E000210A4615F080FF39A385
:200E9C0051E0A86800210A4615F079FFA868022100223AA315F073FF01208DF803009DF820
:200EBC0003000028FBD17CBDA86800210A4615F066FFA8680221002236A315F060FF012048
:200EDC008DF802009DF802000028FBD17CBDA86800210A4615F053FFA8680221002232A3A9
:200EFC0015F04DFF01208DF801009DF801000028FBD17CBDA86800210A4615F040FFA86846
:200F1C00022100222DA315F03AFF01208DF800009DF800000028FBD17CBDA86800210A4679
:200F3C0015F02DFF29A3A8680221002215F027FF7CBDC0463E3E3E535441434B20415353A2
:200F5C00455254002A2A2A4552524F522A2A2A003E3E20494E5445524E414C204552524FB3
:200F7C00522100C03E3E20494E5445524E414C204657204552524F522100C0463E3E2044BB
:200F9C00454641554C54205350494E4C4F434B2100C046C03E3E2057524F4E4720415049E7
:200FBC002043414C4C2100C03E3E204943414C4C2054494D454F55542100C0463E3E2049A4
:200FDC0043414C4C2041424F525421003E3E204F5554204F46204D454D4F52592100C046B7
:040FFC0008020020C7
:20100000B41200001810000015AB0110FDB301106DC00110FDAE011099B5011000000000F7
:08102000000000002D0000009B
:20102800B01200003C100000B1C00110A9BF011067C0011069B80110000000000000000035
:041048003000000074
:20104C00B012000060100000BDC00110CDB30110D9BD01106DB3011000000000000000005B
:04106C00310000004F
:20107000000000000815002004000000000000000000000020000000E8C90110300000000D
:2010900028100000101500200400000000000000000000000C000000D8CA011018000000E8
:2010B0004C1000001815002004000000000000000000000024000000F0CA0110180000006C
:2010D00000000000201500200400000000000000000000001000000018CA01102C00000078
:2010F0000010000030150020040000000000000000000000200000006CCA011024000000DC
:20111000FFFFFFFF381500200400000000000000000000002800000090CA0110240000009B
:20113000FFFFFFFF401500200400000000000000000000001400000008CB0110180000001A
:20115000FFFFFFFF4815002004000000000000000000000058000000B4C9011034000000E8
:20117000FFFFFFFF501500200400000000000000000000001000000020CB011018000000B6
:20119000FFFFFFFF581500200400000000000000000000001C000000B4CA011024000000E3
:2011B000FFFFFFFF601500200400000000000000000000003800000044CA0110280000000B
:2011D000FFFFFFFF681500200400000000000000000000005400000078C901103C00000080
:0811F000010000003CA0010019
:0411F80001000000F2
:0411FC0000000E00E1
:0412000000000F00DB
:0412040032000000B4
:0412080001000000E1
:04120C007413002037
:0412100000020000D8
:0412140000000000D6
:0412180001C90110F7
:04121C0000000000CE
:0412200000000000CA
:0412240008000000BE
:0412280000002200A0
:04122C00501100203D
:0412300000000000BA
:0412340000000000B6
:0412380008000000AA
:04123C00E412002098
:0412400000000000AA
:0412440000000000A6
:04124800080000009A
:04124C00000000009E
:04125000000000009A
:041254000000000096
:041258000000000092
:04125C00010000008D
:04126000EC1100206D
:041264000600000080
:041268000100000081
:04126C00F80F002057
:04127000000000007A
:041274000000000076
:041278000002000070
:04127C00000000006E
:02128000290043
:02128200010069
:02128400250043
:02128600300036
:02128800310033
:02128A002D0035
:02128C0001005F
:01128E00015E
:0812900003000000B89F0100FB
:0812980000000000000000004E
:0412A0000000010049
:0412A4000000030043
:0412A80013C401105A
:0412AC009F8001001E
:0412B000B812000070
:0412B400B81200006C
:0412B8000000000032
:0412BC00C01400203A
:0412C0006B8201003C
:0412C4002000000006
:0412C8001C9F010066
:0412CC00989D0100E8
:0412D00029C101101F
:0412D4008F3F010047
:0412D800C34C010002
:0412DC00A1C7011095
:0412E000A3C701108F
:0412E4000000000006
:0412E800439F01001F
:0412EC006C9B0100F6
:0412F000849B0100DA
:0412F400549B010006
:0212F8000200F2
:0212FA000900E9
:0212FC000100EF
:0212FE000000EE
:0113000001EB
:04130400F98101006A
:04130800455E01003D
:04130C003574010033
:04131000C1620100B5
:041314005B63010016
:04131800ED4B010098
:04131C00F9FC0000D8
:04132000F184010053
:041324005D31010036
:0413280015C70110D4
:04132C0025C70110C0
:201330002DE9F04FADF1240D17F034FE13F006F8071C00F08A8416F08BFCD44A002132F828
:201350000C6F002E40F07D844FF6F87616805760D44C2170002595607968E16016F008FEAA
:2013700004F148073846294617F010FED54841F28832D54927612B46009004F1A00013F0CE
:2013900003F8D24904F1540015232A460090102008F01AFBCE49102002232A4608F014FB86
:2013B000A94601208DF811000DF111078DF8120080468DF813904FF480620346D34D8DF8C9
:2013D000148010202946009708F0FEFA0DF1120040F20242009043462946102008F0F4FA1F
:2013F0000DF113000090294640F203424346102008F0EAFA05A8294640F206424346009012
:20141000102008F0E1FAC94910204FF0FF3208F0DBFAC74910204FF0FF3208F0D5FAC54FAF
:20143000C54D10201323C54A00903946019508F0CBFA042017F0BCF9CE4DE860002831D047
:20145000042017F0B5F9286160B3042017F0B0F9686138B3042017F0ABF9A86110B30420C0
:2014700017F0A6F9E861E8B1E968F01D14F0FEFC2969F01D14F0FAFC6969F01D14F0F6FC0A
:20149000A969F01D14F0F2FCE969F01D14F0EEFCC749102005F5DA7200901F230191394675
:2014B00008F092FA06204FF0070A8DF8150009278DF816A008238DF818700DF115018DF84C
:2014D000173011F069FA0DF11601504611F064FA08200DF1170111F05FFA06A9384611F081
:2014F0005BFA04F1140004F14002B249A860102008F06AFA207815F04FFAAF490246102062
:2015100008F062FA207815F047FAAC490246102008F05AFAAA491020FB2240F6480308F017
:2015300053FAA849102008F04FFAA74F07F1180007F10C010DF050FCA449B86016F0F5FF99
:20155000A34DB8684FF4E0212A46521E14F0DCFCB8684FF4E0212A4614F0D6FC9D4DB868B7
:201570004FF0C0512A46521E14F0CEFCB8684FF0C0512A4614F0C8FC9749CDF8009007F188
:201590002400C8224B4612F0FFFECB487860701D13F02CF9207815F0FFF9CDF800900346CA
:2015B0000422C649CDF80490102008F00DFA04F16C00494618220FF0E1FBCB48F51D4946A5
:2015D00005804FF0FF3011F0F5FBC54EA06049466FF07842BDA03060304615F07FF8A06875
:2015F000C04F60B1716811F0784F08D0F86004203870CE4DBD60304614F000FCA0683E46E4
:2016100031784A46CDA315F0C0FBE06800214FF040424FF0FF3317F0B5FC5FEA000AF4D0E7
:201630000020029004A902AA03A811F035FB002840F0A8819DF80C000DF10E0114F0FEFE84
:20165000002840F09C81BDF80E00ADF80C0016F0CBF9BDF80C00102840F08F8120789DF861
:201670001010884240F08981029908884FF6FF72824200F082810D46287891382AD01F3891
:2016900006D0203800F0768177E1C046280F00202B79A06832787E2B06D07F2B0CD1098982
:2016B000ACA303E008020020297AAEA30091521CD1B2002215F069FB297905F1080017F016
:2016D0005DFC5AE17D1500201D600100811401008560010068780E384ED0401E30D0401EBA
:2016F00000F026812E3840F04881A8780C2840F04481EF78A06831787FB9EA79012A07D0E6
:20171000022A0CBFC4A2C5A203E0C046F5780000C4A20092891CC4A301E0491CC7A3C9B270
:20173000002215F032FB0C201FE0C046C97301002D780100696C0100949F0100100A0020ED
:20175000A88842F23201814240F01781AA78A06831781A2A1ABF0092C9A3D1A3491C00226E
:20177000C9B215F012FB42F2320029460FF052F803E1C046C8050020A968AF88087841F2DC
:201790000542BF1A2AD0A7F62B47002F40F0F580002840F0F280C8780090087901903178E7
:2017B000A0680022CAA3C91DC9B215F0EEFAE4E0A09F0100C1790100518801103181011048
:2017D00021B10010FDF40000441000201D5A01000E0005800E000010CD800100A968491CC5
:2017F00091F90230002840F0C8807F2B00F0C5804A78087800EB022016F0A6FC002840F04F
:20181000F880394D384FC10001EB00102D18697C4A1C40186A74C0190373687C05221746F9
:2018300090FBF7F15143304A401A02F10C016874002011F9012B7F1E024410B2F9D10521F6
:2018500090FBF1F0A8745F420097404201903178A0680022CBA3491DC9B215F096FAEF7C83
:20187000002F40F08A8095F912004FF0000810F11E0F04DB2F7D022F18BF002F36D110F110
:201890001E0F0ADA10F1280F07DB2F7D012F04D0002F1CBF0127391C2AD110F1320F04DBBA
:2018B00010F1280F69DA2F7D57B910F1320F64DA04214FF002081AE00375010005860000F5
:2018D00004214FF00108062712E0C04653696D706C65205065726970686572616C00C046CA
:2018F000F8130020201400207402002002210227687D874202D1AA7D022A01DB87423CD0F2
:2019100028880A46434613F085FE0120E874687D87421CBF0020A875B8F1000F04D0B8F130
:20193000010F14BF022706276F7526E0F9D5000008200021FFF77EFA1FE0C0463D3D3D3DF6
:201950003D3D3D3D3D3D3D3D3D3D3D3D3D3D3D3D00C046C04D54552053697A653A2025644D
:2019700000C046C046432056696F6C617465643A20256400084601F0BFFE029810B10298DC
:2019900016F0CDFE5FEADA70FFF43FAE206917F0F1FA00287FF439AE2069054617F0E6FA3B
:2019B000854208BF002502D0856814F079FA002DAB46EBD09BF80000A946801E00F0EE80D7
:2019D000401E00F0B880401E00F08C80401E3FD0801E00F02B81401E00F02181401E40F0F2
:2019F0002781DBF804000790408816F0ADFB089008B116F041FB0899964FC80000EB01106E
:201A1000C019C07D012840F013810798CC494288102007F0D9FF0BE1324D00C0434F4445F0
:201A30004400C046314D00C0504859205570646174656420746F20257300C0465048592064
:201A50004368616E6765206661696C75726500C0D9F80450687A48B1BA4800903178A06825
:201A700000227DA3C91CC9B215F08FF9B5480090B549EA880023102007F0A6FFD8E0C0467D
:201A90005048592055706461746520537461747573204576656E743A203078257800C04657
:201AB000504859204368616E6765206661696C7572652C207065657220646F6573206E6FF7
:201AD0007420737570706F7274207468697300C0525850683A2025642C20545850683A205E
:201AF000256400C0D9F804301879A26831781B78FBB15B1E10D05B1E08D05B1E40F098809A
:201B1000002808BF58A30DD05CA30AE0002808BF60A307D064A304E0002808BF68A301D086
:201B30006BA300901046C91C0022C9B215F02DF97EE06CA3F6E7D9F80450A16830782A6842
:201B5000521E0CD0521E08D00E3A13D16A6813780093528867A3019205E06FA300E073A361
:201B70006A6812780092001DC2B208461146002215F00BF92868B0F1004F59D0686814F089
:201B90008FF955E0525353493A2D25642C2041564720525353493A2D256400C0D9F8040037
:201BB0000078010922D2400942D30E2016F09AFA00283DD17068717842680B46B3EBD26FA8
:201BD00012D01A46FF2A33D000EBC202D7682FB900EBC100006914F011F929E000EBC100D9
:201BF00002691846904723E08068F4E70D2016F079FAE8B9716870784968B0EBD16F07D004
:201C1000FF2809D0401CC0B213F06CFEFF2802D1002013F067FE707009F094FB08E0D9F8D6
:201C30000400B0F801000EF02BFC06E011F0F2FBD9F8040008B114F033F9584614F030F965
:201C5000A4E6491C0629FFF47AAB16F0C9FD09B0BDE8F08F7402002050617373636F6465CD
:201C70003A20256400C046C0426F6E642073617665207375636365737300C046426F6E64B7
:201C90002073617665206661696C65643A20256400C046C0456E6372797074696F6E207379
:201CB00075636365737300C0456E6372797074696F6E206661696C65643A20256400C04635
:201CD00050616972696E6720737563636573730050616972696E67206661696C3A202564A8
:201CF00000C046C050616972696E6720737461727465640041647620536574202564206499
:201D1000697361626C656420616674657220636F6E6E20256400C0464164762053657420A9
:201D300025642044697361626C6564004164762053657420256420456E61626C656400C037
:201D500025AB001040E201008D6301002DE9F04F85B0804611F8010BDFF8E827009008F1AB
:201D7000FD00009B182B08F1E70508F1660A08F20D1B08F5B07408F1860908F59C7608F553
:201D9000C67700F2CD83DFE813F019006E007F018B00CB03CB03F400A60306011C01F70004
:201DB00003014601CB03CB039F01CB0383016901B203FD02FD025502CB03A00211F8010B41
:201DD00089F80000022208F1880017F0CBF80146022208F18A0017F0C5F80146022208F1ED
:201DF0008C0017F0BFF80146022208F18E0017F0B9F899F80010B9F80220490089F8001091
:201E10005200B9F80410A9F802204900A9F804100222B9F808100901A9F80810014608F1EA
:201E3000840017F09FF8BAF81E10B8F80800091A89B247F6FF72914229DAB9F80600B9F88E
:201E50000410B9F80820401C49004843904201D33B201AE101208AF81C000020A8F81E00BC
:201E7000012030706BE3052208F1610017F07AF80146022208F1920017F074F8B9F80C1013
:201E9000B8F80800091A89B247F6FF72914280F24782012189F80A100020A8F81E006FE274
:201EB000A87DC20709D4687B1A210128A97302D1FF220D213BE00D2101E200208AF80000F4
:201ED00008220120687408F1A80408F1B00017F049F80146022208F1B80017F043F8014690
:201EF0000822204617F03EF806460821204617F035F808F19C0404223146204617F032F829
:201F10000421204617F02AF808F1A00017F022F808F1980017F01AF8DFF82C06018841F0D6
:201F300080010180687B012807D1FF220421404605B0BDE8F04F0EF063BE9AF811500F2DF8
:201F500018BF142D03D00E2D18BF0C2D0FD19AF81040404611F0BEFB042140460FF046FF4A
:201F7000012C12BF29468AF81A50FD21A7E10421A5E10120E873E2E200208AF800008AF843
:201F9000060028700B21012068730020687096E101202874D3E2002302F10904CD5CE45CFE
:201FB0002543CD54541CE45C2540C5545B1C082BF2DB9AF80600002846D040460FF082FF07
:201FD000B3E2002302F10907CE5CFF5C3E43CE54571CFF5C3E40C6545B1C082BF2DB02200F
:201FF0006875E87D010703D440F64800A081E08150788106CED520891B2804BF61891B29E1
:2020100007D1A089B0F5A47F04BFE189B1F5A47FC0D0142153E19BF80000012811D011F852
:20203000012B8BF8032008F58970022216F09AFF0146022208F58A7016F094FF01208BF866
:2020500000009AF80600002800F0A2819BF8021000292CD140460FF0D1F966E2A87DDFF83F
:20207000EC44C10609D412218BF80C10404611F0E7FC00281BD120785AE2404612F0C0F818
:20209000002814D1207853E208788BF80B0082E108782070487860709AF8100001280DD19C
:2020B0009AF811100F39012902D9C91F02D046E2707344E2387B40F001002FE205B0BDE8D6
:2020D000F04F002015F02ABDA87DDFF88044820709D40F218BF80C10404611F0B1FC002854
:2020F000E7D1207824E208784A7800EB02203082CA78887800EB022070824A79087900EB09
:202110000220B082CA79887900EB0220F082087A30768A7A487A00EB022070830A7BC87AE3
:2021300000EB0220B0838A7B487B00EB0220F0830A7CC87B00EB022030848A7C487C00EBC8
:20215000022070840A7DC87C00EB0220B084487D897D00EB0120F08408F5AA700490708B5C
:202170000390307E0290B8F808000190F08A0090B38A728A318A40460EF080FDA0B1A87DBE
:20219000410709D40F218BF80C10404611F058FC00284CD12078CBE1404605B0BDE8F04FB8
:2021B0001E220F2113F066BD708AA9F80400B08AA9F80600F08AA9F80800022089F8000033
:2021D0000020A9F80200B8F83400C01DAAF81E00B8F83210B9F80400884202BFB9F80600C2
:2021F000B8F83410884202BFB9F80800B8F8361088421DD09AF81000012804BF9AF81110A9
:202210000F2907D09AF8150020B10F218AF81A10FE2154E0FC2140460FF0E8FDF08A009067
:20223000B38A728A318A98F8060016F08BFE86E1102144E0E87D10F0090F03D116218BF8AE
:202250000C106FE148780A7800F0070002400A7008787A7B0240FA7210D0501E02420BD07D
:20227000510704D5B87B10B10421F97204E00220024219D14008FBD1F87A08B9B97AF97280
:20229000F87A042803D1404610F0D6FEA083F87A16F054FE3871A28BB97B012312F00EFC3B
:2022B000218B814202D208E0F872E5E7A28BB97B3879012312F002FC014679801721404679
:2022D00005B0BDE8F04F0FF091BD48780A78824207D100F00700104008702ED0431E1842B2
:2022F0000FD01E221821404613F0C4FC98F80610002300221E200CF047FB387B40F04000A3
:202310000CE1F87247F6FF728878C97800EB012038813989B8F80800091A89B2914201DB1B
:20233000282136E00120B871F87A042803D1404610F082FEA083F87A0BE09AF8110016280B
:2023500006D1BA7A98F80610134600200CF01CFBB87A3871A28BB97B3879012312F0AEFB74
:20237000218B814206D3A28BB97B3879012312F0A5FB014679800121387B40F040003873FD
:202390003170DCE0142B04BF9AF80600002806D13D218BF80B1001208BF80A00CFE008785E
:2023B0004A7800EB02206082CA78887800EB0220E0824A79087900EB022020828879C97975
:2023D00000EB0120A08208F5B07108F5B0708A8AC089B97A904288BF1046042905D140F64C
:2023F00091229042B8BF4FF42960E28BE0839042B87A14BF01250025042803D1404610F08D
:202410001BFE08E008F5B07008F5B0718089CA8A904288BF1046A28BA08308F5B071904264
:2024300008F5B0704A8A008918BF0125904288BF1046228B2083904218BF0125A28BB97B26
:20245000B87A012312F03AFB218B814206D3A28BB97BB87A012312F031FB0146798008F575
:20247000B07008F5B0724189108A628B814288BF01466183914298F8063014BF01200020DA
:2024900005438A4232490A6802EB4311628B8041121DC00F0A7610B1404613F06DFE009871
:2024B00014280ED145B1E08B0090638BA28B218B98F8060016F03EFD152140460DF09CFF0E
:2024D00033E01DB1387840F008003870397841F02001397033E008780E280ED00F2809D018
:2024F000122804D014280BD0162811D027E00020307224E00120307321E0032068751EE0F8
:20251000387840F00200387040F01000387016E0387B40F00200387340F0100038730EE0DA
:202530008BF80C30404611F08BFA40B9074800784FF4804105B0BDE8F04F0AF037BF05B0BE
:20255000BDE8F08F5C1F0020524F00206E4F0020FC1F00202DE9F84F012013F05BFE0128D0
:2025700019D1DFF87046207800210AF0FFFB5FEA000804BF002015F0D1FA002088F808007B
:2025900008F1040010F0F8FA05F080FD050003D1812016F0CBFC18E301206871DFF8380679
:2025B0004178491C4170A879DFF8301688F80A002078087005F5977440200BF057FC286029
:2025D000D8F854104A78D8F85000D1061AD5806D01680A79032A1CBF002015F09FFAD8F8A0
:2025F0005000816D90F87C000A6802F1080601281CBF002015F092FAD8F85000D0F88410E5
:20261000286845E0C16E08680279032A1CBF002015F084FAD8F85000C16E90F898000A684F
:2026300002F1080601281CBF002015F077FAD8F85000DFF8AC25D0F8A0102868DFF8A4950F
:20265000C16096F826701388032F21D8DFE807F00205101801F5B06101E001F53471C160CE
:20267000B9F80000E087B9F80000A5F8740112E0E3871188A5F87411C16801F5355109E0CA
:20269000E3871188A5F87411C16801F6B87101E001F5B061C1603078DFF84C95DFF84CB57B
:2026B000C0F3801020700622B11C05F5947015F001FC042206F10E0105F1240015F0FAFB02
:2026D000D9F80000AF7900F10C03042206F10E0103EB471015F0EEFBD9F80000AB7900EBB2
:2026F0004310032206F11201103015F0E3FB05F12C07707DB870022206F1160105F130008F
:2027100015F0D8FB022206F1180105F1320015F0D1FB022206F11A0105F1340015F0CAFB7A
:2027300038896884022206F11C0105F1360015F0C1FBB87879894000B8700901B8887981D9
:202750004000B88089B2F8884000F88003046A8C521CDB0B5A438A4201D280B230B99BF843
:20277000000080210AF022FE3B2142E105F12E01284614F0E3FF0520A881284615F0F8F9E4
:20279000052206F11E0105F1610015F093FB96F823004009387014F0C7FD6882B8F82A10C4
:2027B000401AA08105F1610196F82300DFF8404400F01F00F873284612F035FCD8F85410DB
:2027D0004A78D8F85000D10647BF0021806D0021C06E1C260268117141F62102A97920689B
:2027F000714342520022A97971430144001D4A80A97971434250D8F85410DFF8F8034A782D
:20281000D1060DD5DFF8F0138A7851060AD5DFF8EC130A8841F20A439A4208BFDFF8E00398
:20283000C5F89C01D5F89C11284688472168AB7901F10E027343D054A97920687143084444
:202850000021C173DFF8BC03017881B1B88870B9002179730120288168812846D5F89C11C1
:2028700088472168AB7901F10E027343D054A8792168704301F10E02125C7A73D8F8541002
:202890004A78D1061CD505F5CB7A9AF8000008B915F044F9A9792068714308449AF800107E
:2028B0004A1E0274A979206871430844002141742068AA7900F112017243002088522AE042
:2028D000D8F85010236891F8402018440274A979206871430844D8F8501091F841204274F8
:2028F000D8F850002168AB79403001F1120273434188D15205F5CB710078012200F003001F
:2029100082400A70D8F8502092F84000800814BF012002200871A979D9F800002268DFF8F6
:20293000E8A200EB411302F1140C71434CF80130A97971431144B54A8A61DAF814100978F6
:2029500095F806E0CA074CBF102200228B074CBF202300235FEA417C4CBF4FF0400C4FF0E6
:20297000000C09074CBF8021002113434CEA030308304FEA4E1E0B4343F00F0300F80E3026
:20299000D9F80000A97900EB41100B224272D9F80010A87901EB401104228A729C4A137845
:2029B000D9F80000A979012B00EB411002D10121C17203E0DAF828104A78C272D9F80000D0
:2029D000A97900EB41101F220276D9F80010A87901EB401100224A76A8790BF0EFF9A97989
:2029F000D9F8002049015050A9794B01D05820B90721284614F08EFDE7E08648026802EB6C
:202A1000011016F08FFA834AA8791368D9F8001003EB00130A1D40011350081DAA79520155
:202A30008058F863A87940010958796404219BF800000AF0BBFCD8F8540042782168D0060D
:202A500048BF4FF0020B0BD4A87970430844007C00F00300022814BF4FF0040B4FF0060B0A
:202A7000684BBA881878934410B10AB9F8888344688A00FB0BF04FF4C872B0FBF2F2521CBD
:202A9000C5F818B06A6140F6C41CA8792B687043009001F1080ED8680CFB0B0B0098ABEB36
:202AB0000202A2F5A8624EF8002001F10800AA7972438058986001F10C02A87970430C3148
:202AD000125C02F0EF020A54A8792168704301F10C020C31125C02F07F020A54A8792168B4
:202AF000704301F10C020C31125C02F0F00242F002020A54A979206871430844417B01F099
:202B1000F00141F0010141732068AA7900F1080172438858296808616B69D9F80000A979D2
:202B300097F802E05B0000F1140249010CFB0E3303F5F663535095F89611042907D1A979D1
:202B5000490100F11403525802F561625A50A97900EB4110C27C02F0F00242F00402C27417
:202B7000FB88D9F80010A879DAF8307001EB4012386843436427B3FBF7F30CFB03F0A0F538
:202B90009660D061A87901EB4010C17E01F0F00141F00401C176A97920684E4329688019AE
:202BB00048600E2128460FF021F91B4907200870404615F035FAAA790021404610F05EFDC5
:202BD00028681649416116498161BDE8F14F03F02DBD00BF32200020684E002034200020D6
:202BF0002420002022200020FC1F00206E4F0020F81F0020EB3E01005C1F0020504F00202C
:202C100095370100784E002070A001005C4D0020734F00208C4E00206F4F00207953010090
:202C3000020480802DE9F04FBA4CADF1240DDFF8E08220780591C90BCF032CD10599A069A3
:202C5000C90811D20598000938BF0020C0F0C382A07B012804D14146087808B90CF0FCFB2A
:202C7000059880F00800B5E288B114F03BFF071C0DD0F87A58B9384615F066FD7A68B97AA3
:202C9000388907F06DF9786808B115F0A7FB059880F004009EE20CF007FD0028069000F087
:202CB00096820546012007902878B03800F0F281401E00F0E5811F3840F07C82A9786069DB
:202CD00000270A290FDC0A2900F0B280002900F0AA81491F00F09B81491E00F06B81C81E69
:202CF00000F05181CAE10B3900F08C80C91E7FD0491E0DD0481E40F0C181227814F0F2FE37
:202D1000002800F05581104604210AF04FFB4FE12E4628B143681BB1A88839460A46984724
:202D30006078002861D0B08812F07EFA051C00F0A581B07A40080FD36B796BB1012B0BD00E
:202D5000F068800A08D203F00103A81D3A4619460DF05AF8002843D1207A022802D1B07AC0
:202D700000093DD3B6F804806D790C2015F026FB06F10809061C00F01B81A6F80880B572BD
:202D900039463160B9F1000FF77209D04846082114F034FF706020B9304615F01FFB07E104
:202DB0007160A369002B08BFA66102D01A68AAB91E60304615F0C8FC4A462946404607F03D
:202DD000CFF86069002800F0F3804368002B00F0EF80394640460A469847E9E01346E5E771
:202DF000B088032116F09AF848E1B08805211CE0002800F0DD804368002B00F0D9806A78D6
:202E10000221BEE015F0A2FA002800F0D180606948B107683FB12869009069892A7B6B7B18
:202E3000E81CB847C4E06889079916F077F8BFE0B9466F78002F40F09980A9794908C0F0B5
:202E5000958002A84946082215F0D6FCA88812F0EBF9061C09D1227814F044FE002865D0C4
:202E7000104604210AF0A2FA60E06F69002F53D007F111004946062214F02BFFC84600B318
:202E90003846062214F025FFB8B9387C07F1110A4F4600F0010B7F1C504659464A46FFB27A
:202EB0008AF800700CF0B0FF10B9002FF3D104E01FB1B8F1010F02D006E0DDF81C804F467E
:202ED0006F61B8F1010F27D0686978B30746387C062207F1110100F001008DF80E0002A805
:202EF00014F0E8FF707907F11108012805D106F10C00B11D062214F0DDFFB01D4146062289
:202F100014F0D8FF387C40F0020070710EE0C0465A4F0020680D00207079B11D062200F0DE
:202F300001008DF80E0002A814F0C4FFA8799DF80F10C0F3800008438DF80F00A87900096B
:202F500005D39DF80F0040F008008DF80F0002A8294605F085F95FEA000903D1A88811F036
:202F7000F9FC02E0A88813F06BF8606900B34368F3B1A8886A780799984760694A460321FB
:202F90004368A88828E7E978281D0DF1110201F001010CF039FF58B99DF81110480005F154
:202FB0000C0200EB810025300421C0B208F0B0FD079F63E0A88813F043F815F0ABFF0028C8
:202FD0005CD1E07A012814D0207B01280DD0834C3D4614F8010F012803D1284608F086FE57
:202FF00027706D1C062DF4DB0CE00FF00DF8277308E015F00AF8394604F120000622E17217
:2030100015F0FAFB14F06AF811F038FC36E06878002833D1E8786A892B7B291D00F00100B9
:2030300009F072FF2AE0687840BB15F06FFF814615F068FF804615F061FF8DF8100010219A
:203050004A46022008F064FD03201021424608F05FFD0799042004AA08F05AFD9DF81000BF
:20307000012803D09DF81000032807D1079813F075FA02460620014608F04AFD079799E080
:203090002879002840F096806888E9882A8910F045FA8FE02879401E40D0083802D0743882
:2030B0007BD082E068781A2873D06888804614F0F5FA801E18D0401E77D1288901280AD164
:2030D0006889032807D1E9688A784046042110F08CFC024600E018226069002865D0436833
:2030F000002B62D0042116E029896888079A0129804609D16989032906D1E9688F781FB916
:20311000102110F072FC0246606900284DD04368002B4AD005214046984746E0297A688876
:2031300005F108060829824633D114F0B7FA801E0ED0401E2DD168890421002210F055FC68
:203150000246606928B343681BB3688904211FE070881021002210F048FC8146504612F0F7
:2031700063F870B141460F784FB94179079A871D01F001010846394614F091FD01E00798DC
:20319000A073606928B143681BB1708805214A469847688811F0DEFB07E06C88204614F057
:2031B0007DFA0146204610F01FFD297905F1080015F0E4FE079838B909480078FF2806D0E2
:2031D000069914F00BFB02E0069814F0F7FA059880F4004080B209B0BDE8F08F870D0020AD
:2031F0007E1500202DE9F843040014D1002014F095FC10E0204610F023FC012808D063E064
:203210008A0740F1578101F0FD0101700020B071204610F05FFA04F16605687D002853D014
:20323000697CDFF8CC94022904F1EC0704F59E7804F5B07604F5C67035D0042947D005297B
:203250005DD0062900F08B800729D3D0092900F0EF800B2900F0C3800C2900F00B810D2955
:2032700000F0D3800E2900F0ED800F2900F02B81102900F04581112900F05F81122900F06F
:203290001181142900F08A81162900F05D81172900F07881FC2917D0FD2900F09881FE29BC
:2032B00000F0A481A2E7297C012909D199F80300002813D01621204614F02CF9012004E04D
:2032D00020460FF047FD28740020BDE8F283297C012940F0A78199F80200002800F0EA8023
:2032F0000021A971FF22FC2120460DF089FCA07904F1B80204F1B00115F0FCFD8BE7297CDA
:20331000012910D199F8020020B184F89410002038607860B87A01286AD1FF22062120463A
:203330000DF06EFC77E704F1E7063078012808D1204612F030FB0128C6D10020B87201206E
:20335000C1E770780028BFD004F1C70204F1A00104F1D70015F0CAFD012030705BE7297C82
:20337000012940F0668199F80200002840D0618CE183204610F0AEF901202870204611F0B3
:2033900031FE0120A871397A787C012900F010000FD148B1002088F80500D8F8001098F8F5
:2033B000060049080FF06EF8A079002115F09AFD0FE048B1D8F80020DFF8380304F5A17374
:2033D0005208214615F036F9A0790122002115F085FD002038723873F872B8721BE7287C55
:2033F000012806D1F97A012904BFFF22FC2196D060E020460EF0DEFF01289DD10020F87217
:2034100084F894000120287405E7297C012940F0148199F80200002809D0002184F894107A
:2034300001202870204611F0DDFD0120A87188E0297C012940F0058199F80200D0B3618C58
:20345000E183E5E6287C012840F0FF80387C022804F1FD0204D1A179002015F03BFDD7E6D6
:20347000032840F0FB80A1791A2015F033FD00203874CDE6287C012804F20D1140F0F980D4
:203490000B78012B04F5897240F0F9804878012807D15388009300201388CA78A17915F085
:2034B00015FDB5E6297C012940F0F88099F802000028F6D1298B481E288380B200287FF4C4
:2034D00003AF2221F7E6287C012840F0EB8098F80910012902D130780F281BE098F808008A
:2034F000012826D1002188F80810288D000900901A20AA8CEB8CA179520815F0E3FC87E6E9
:20351000287C012840F0D28098F80910012910D1307810281CBF002014F000FB002088F81E
:203530000900288D00090090AA8CEB8CA1797078E2E7287F0028E2D1BCE7297C012940F088
:20355000B98099F80300F5E7297C012940F0B680017B4A061DD4CA0709D501F0FE010173AD
:203570000023A179707800220BF00EFA50E68A0740F1A98001F0FD0101730023A17900220E
:203590001A20F1E7297C012940F0AA80027B510690D5017B01F0BF01017339E6297C012918
:2035B00040F0A08001788A067FF52AAE01F0DF010A0701700AD501F0F7010170F08B0090BF
:2035D000738BB28B318BA07915F0B4FC1EE6A97EFF2220460DF014FB14E7FF2220460DF0D9
:2035F0000FFBACE6002014F099FA6DE6A97E0C2918BF0E29F1D00F2902D01429EDD0F1E70E
:20361000FF22FC2120460DF0FBFAB8F812000090B8F81030B8F80E20B8F80C10A07915F0FA
:2036300091FC51E620460CF065F92874E88A28834AE6204610F0D4FBF7E7204611F074FE21
:20365000F3E720460EF03EFCEFE720460EF004FC2874E88A28830120387435E6288B401EF6
:20367000288380B20028F8D1A179222015F032FC27E70120887020460DF0C0FED5E7288B26
:20369000401E288380B20028E7D15088009022201388CA78A17915F019FC12E7204610F0E5
:2036B00087FDC2E720460AF085FFBEE720460AF0D3FFBAE720460FF02FFAB6E716212046A9
:2036D0000AF02EFDB1E7288B401E288380B20028C3D1A1790023002222200BF055F9F0E6B3
:2036F0001721ECE7142120460CF086FE9DE700BF5C4D0020991301002DE9F04FB54C05463A
:20371000ADF1540DA068DFF8C8921290B24880460678A878761C002800F06081AB49401F83
:203730000FF2902B00F0AA80401E4DD0401E1DD00A3840F01182A888ADF80800688960B9F1
:20375000ADF80E00A889ADF81000E988ADF80A102F89ADF80C70012000E0002099498DF82F
:20377000130002AA102006F02FF9FBE19649AA88102002AB06F028F998F80070A668E878DD
:20379000BF1C30B90DF10A0010F004FA74A3009007E00DF10A0010F0FDF9A978009176A3F8
:2037B0000190F9B23046002213F0EFFA04F1380013F05BFE041C00F0D58120890CF060FE47
:2037D000204612F06DFBCDE1102006F0FDF8C7B298F80010A068002270A3491CC9B213F007
:2037F000D4FA009798F80010A06800225B46891CC9B213F0CAFAA888824614F0A5FC01283C
:203810001CD0C50005EB00152D196C35AE687EB1304614F0F7FF10B1304614F0DFFF3046B7
:2038300015F04CFB304612F03BFB686812F038FB504612F023F9504610F0D8FF47B904F163
:20385000A00014F0CBFFC9480021012212F046FF002500956278494610202B4606F0B4F8E8
:203870000095A278494610202B4606F0ADF898F80060A0682A46F61C12906FE1102006F02C
:20389000A3F85FFA80FACDF800A098F80010A06800225B46891CC9B213F077FA687800283E
:2038B0003DD104F16C066F8930884FF6FF7181421ED13780032014F07BFF7060B0B10821BA
:2038D00001707068A0F80170242014F071FFB06018B9706812F0E4FA08E070680090AF49ED
:2038F000B06841F27072012310F04EFD0120307598F80060A768281D10F04CF9761C0090AB
:2039100000229BA3F1B2384613F03FFA97480121002212F0E3FE04F1A00014F05DFFA278C5
:20393000BAF1000F0FD1002500956278494610202B4606F049F82B460093A2784946102005
:2039500006F042F80EE1DFF858920025102000952B46494606F038F82B4600936278EDE7B5
:203970004C696E6B20506172616D20557064617465643A20257300C04C696E6B205061722E
:20399000616D20557064617465204661696C656420307825783A20257300C046446576697C
:2039B000636520446973636F6E6E65637465642100C046C04E756D20436F6E6E733A202585
:2039D0006400C0467DD40000F54901002161010085E000000802002020140020687800286F
:2039F00040F0C080EB798DF80930A81D13902A7A8DF80A20E97A8DF80F1000278DF80C703B
:203A1000AB7A8DF80B7000788DF80E306A7A8DF8080064498DF80D2002AB1A680A6058680D
:203A30004860129856A3F1B23A4613F0AEF95E49B1E82C100BA8A0E82C100EC9651C80E8AB
:203A50000E000BAB1020DFF868A158490095524605F0BAFFC0B200287CD1072304F12802D6
:203A70000093544D01926278102029463B4605F0ABFFC0B200286DD11B23009304F18402B2
:203A90000192627829461020012305F09DFFC0B200285FD1DFF820B1627810209223594685
:203AB00005F092FF00976278494610203B4605F08BFFC0B200284DD13B481C30B0E80C50C5
:203AD00004A9A1E80C500DC881E80D00A01C04AB524636490090102005F076FFC0B20028B3
:203AF00038D1364B072000900193A278294610203B4605F069FFC0B200282BD1304B1B20FE
:203B100000900193A27829461020012305F05CFFC0B2F8B9A27859461020922305F054FF3B
:203B30000097A278494610203B4605F04DFF98F80050A468C0B268B9139810F02BF8AD1D2C
:203B500015A100913A4611A30190E9B2204613F01CF907E014F090FA701CC2B21298F1B26E
:203B700014F0C5FC15B0BDE8F08FC046F8130020436F6E6E656374656420746F2025730008
:203B9000496E697469616C697A656400257320416464723A20257300446576001D600100DD
:203BB000D95601007B090020689C0100219500003D71010039B900003144010030020020FD
:203BD0008C0200202DE9F84FDFF84044A178FF2904BF002013F0A2FFA07814F0D3FA044674
:203BF00004F1680604F5C9753168086804F1900710B10022E28310E0B17B002904BFB07E08
:203C100000280AD13978002904BF2878002804D1217F012904BF608CE0832189E08B41180D
:203C3000491C6181204613F097FC01281EBFDFF8E0030178012904D120890022401CE2836D
:203C500060814FF6FF78B07E01280DD1B28B6189208915F02FF938B1218960894A1C93B25E
:203C700098422CD0B08B20E0387801280DD17A886189208915F01EF938B1218960894A1CD9
:203C900093B298421BD078880FE02878012816D16A886189208915F00DF980B12189608917
:203CB0004A1C93B298420AD0688892B2904206D04044608180B215F0F9F84044E0832878A5
:203CD00001280DD120896988401C80B2814207D16A792A71002028701346A1790AF054FE15
:203CF00004F59A71087920B120890021401CE183608104F12E07B07E01283ED12289B08B7D
:203D1000521C92B2904238D1608104F18601204613F014FDB08C6189608400202077E0830B
:203D3000E0894118A181B08B218915F0BFF88046B988308C728C01FB0808F08C8A4204BF16
:203D50003989884202BFB18CFB88994207D000090090B38CA1795208002015F0B3F8B07F49
:203D70003870708CB880B08CF880F08C3881204613F0FEFE0220B07601E0B7F80480E28B40
:203D9000DFF89092501C00FB08F040F6C41808FB00F100912368D3F80CC06144DFF878C24C
:203DB000D960DCF800E09D499EF800A00B884FEA9A1ABAF1030F15D199F80FC05FEACC7ED4
:203DD00048BF00230ED45B1C1FFA83FCBCF1010F11BFB4F812C004F59A7CBCF806C00CF226
:203DF000DC5C01E0B4F812C00CFB00FC4FF4C87EBCFBFEFCDFF828A20CF1010CC4F814C0A4
:203E10000B8084F820204FF01C0BA379A0610BFB03F3DAF800102268D2F80CE001F10800B0
:203E3000C058106101F10803A0790BFB00FC6069AEEB000043F80C0001F10800A3790BFB0C
:203E500003F3C058906001F10C02A0790BFB00F00C31125C02F0F00242F002020A54DAF850
:203E70000000A279811C0BFB02F200208852287908B913F053FEDAF80000A27900F11001E1
:203E900028790BFB02F240088854A079DAF800100BFB00F00844002141742879042814D18E
:203EB000A079DAF800100BFB00F001F110022B7A125C103142EA83020A54A179DAF80000AE
:203ED0000BFB01F1084420214174DAF80000A27900F112010BFB02F200238B525149A279F8
:203EF0000968520101F11403D4F814C09B5801F1140E03EB4C034EF80230B27E022A0AD152
:203F1000A279520101F114033E789B5808FB063301F11406B35099F80F20D30749D5A27953
:203F30000BFB02F200F1080300F108069B58A3F5A863B3500830A27923680BFB02F2825831
:203F50009A600098121A1A6101F11402A079400101F11403125802F5F6621A5028790428BD
:203F700007D1A079400101F11402125802F561621A5001F11400A27952018058C4F834012C
:203F900001F11C03284AB888166BA57908FB00F730686D01381AA0F516705851A37901EB91
:203FB000431022490D78012D0EBF0122916A4A7819E02879A37904280CBF4FF4AA504FF4A6
:203FD000E66001F114025B01D258101ABA8808FB02F2A2F516729042D2D30821204613F072
:203FF00099FA01200FE0C272A179DAF80000104A0BFB01F108442168486007201070204612
:2040100011F08FFA0020BDE8F28F00BF684E0020784F00205C4D0020084F0020262000209E
:20403000F81F0020FC1F002070A00100734F00206F4F00202DE9F84F040004BF002013F0E6
:204050006DFD04F1500941F62300D9F8006030800020708014F026FF00F57A60B0608220A3
:20407000307302207073B0682061207EB0730020F073D9F80400017D022904BF002013F047
:204090004DFDD9F80400007D012802D10020002104E083280CBF06200220202130747174CB
:2040B00004F1240BD9F80400DFF878834178480615D5D8F8340041690A689BF80510501C00
:2040D00001EB4101405A7082607DC10604D5E07F40F04000E07702E040F04000607506F155
:2040F0005805002028714FF01E0A9BF81A00800000F00400287104F130002861607DC10627
:2041100044D506F130013162D9F8040041788A060BD5617D01F0FE016175407810F0030F4F
:2041300003D1E07F00F0FE00E077607D12F0F4F80246A275521C307CC0F38001002392B218
:2041500000F0030011F0D0F8A0831E23A08BE27D00F5FA7100F5FA7090FBF3F34A430AFBE3
:2041700013006283C0B208B1C0F11E008018A183608380B2B168C03001EB8001A9600220CB
:20419000E871E07F40F00800E07714E000213162607D40F001006075D9F804104A7851073E
:2041B00044BF40F002006075607D12F0B5F8A0750020A860E871A07D217D60F3050106F1B8
:2041D00088002175017006F12807617D4170032181709BF81A10890001F0040141F0030105
:2041F00081709BF81B20D20002F00802114381700021C1708160BBF81C00C0F30B00ABF87A
:204210001C00D9F80410CA7D40EA0230ABF81C000022617D01F0FE01204608F0DBFE40F6CE
:204230001200B0830020F083A020706207203870607DC1064CBF002002207870E07D788007
:2042500041F62400388100207881618BB06800EB810038610021822038750220787594F80D
:20427000210000F03F00B875F975D9F80400807D012818BF022803D100F07F00401E04E0C2
:2042900083280CBF06200220202179763876D8F8340041690A689BF80510501C01EB410110
:2042B000405A788300206861D9F80400417811F0030F1BD012F078FC6861D8F81800007845
:2042D000C1074CBF1021002182074CBF2022002243074CBF4023002300074CBF8020002004
:2042F00011431943014341F00F01297600206876D9F80400807C00F0030068769BF81A107D
:20431000890001F00401084368769BF81B10C90001F0080141F010010843687642490878EE
:2043300038B1697E41F040016976287E00F0FE002876E07F11F0F0FF84F82000204608F0D1
:20435000D5FFE07FC1063AD5D9F8040094F820204178521C88074EBFD21E9BF81F008218A4
:20437000387EC0F380010023D2B200F0030010F0BBFFABF80000BBF8000000F59671C1F1EB
:204390001E0291FBFAF10AFB012A8BF804A0D9F804104A7891074CBF00214FF4FA710818E6
:2043B000ABF80000ABF80200BBF800209BF8040039698218C03201EB8201022001E000217A
:2043D0000020E961E87604F13000A862D9F804104A78687E510747BF04F1380140F020006D
:2043F000124900F0DF00E9626876A17F94F8200060F30501A17740F60B00B8840020F88404
:20441000F86228700220687094F845006880D9F804004178880744BF012068800020BDE8F9
:20443000F28F00BF70A00100784E0020D04700202DE9F84F0D46680688B028D5C84A107811
:20445000002108F093FC040021D0C64908688047064614F0D1F8012804D013F0A7FF6168E1
:20447000884203D140F2014014F018FD00202072201D0EF081FBBC490A683046904720466F
:2044900013F0CEFDFF22432120460FF0F7F8E8070BD513F08BFF28B100218160B3480068CB
:2044B00000B1804785F0010057E1A80710D500200690002104900023029000900591039356
:2044D000019101223C2014F0E5FC85F0020044E11E266807DFF8988240F1A080002007908E
:2044F0008346A4480078002108F040FCA24904468878FF2804BF002013F010FBA07A13F0C0
:2045100041FE0746606D807A97F82E91022818BF032807F5947A06D108F10D0014F0B6FC21
:2045300008B908F1070B5146484614F0ABFC88B3606D807C002818BF012804D141465046B1
:2045500012F09FF904E05246494640460EF034F8FF283ED006FB00F908EB09060622514606
:20457000F01D13F0A7FC18F8090040F00209F01D07900622606DC17A01F0010187F82E119F
:2045900006F1010A606D00F10C0107F5947013F091FC1EE05146484613F058FDC8B1524622
:2045B000494640460EF008F8FF2812D0464308EB060404F10D0014F069FC40B904F10D00E3
:2045D00014F064FC002804BF607F012801D149F0020907F12C004B460178069141890909BD
:2045F00005917A8C079904920122C088029140080390CDF804B0CDF800A00020B97914F0CC
:2046100049FCD7F89C015D498842B8790CBF002101210BF069FE85F004009EE0280610D5BE
:20463000002006900021049000230290009005910393019101223B2014F02CFC85F080005D
:204650008BE0E80443D54E48046808F1070108F10D0014F013FC29E0207A012825D1616D2F
:204670004878410721D504F13E000178022918BF03291AD1417804F1380240460DF09CFF61
:20469000FF2812D0704308EB000707F10D0014F0FDFB50B9F91D07F10D0014F0EFFB062219
:2046B000F91D04F1380013F005FC2468002CD3D134484268344800784FF4805110F04EFCCF
:2046D00010B18E200CF05EFA85F4805045E0A80505D513F018FF2D4901200860FEE76905A6
:2046F00004D509F0C2FE85F4806036E0680405D581200CF047FA85F480402EE0A8042BD592
:20471000234C206810B1002013F008FA4FF0FF30206000201F4C0DF037F8216851F8202FE6
:20473000684690471C48016B426B00910192C06A24681A491A4A02910392ADF810006B4638
:204750002668184A18491948B0471949086004F0C1FA85F4005000E0002009B0BDE8F08F81
:2047700032200020E80E0020EC0E0020204F0020D01B002034200020684E002095370100D6
:204790000C200020784E00206E4F0020FC002043044F0020F04E0020D81000209D830100A1
:2047B000AD830100E81E00206014002088490020EC4E00202DE9FC47B14CB24D2678DFF8E9
:2047D000C882B24FB249002E4FF4A05900F01781072E14D0092E18BF0A2E00F012810B2E76
:2047F00018BF0C2E00F021810D2E00F0E480112E54D1A84A1078002108F0B8FA002871D065
:20481000C5F80080426D5378016DA34CDFF88C82DB0657D50B4641F2044EB3F802C0F44506
:204830001FBF5E8B7645B3F832A0F24506D041F20A4EF4451CBF7645F24502D1A7F800E079
:2048500048E04FF0000E40F601044FF4806A182606FB0EFC9E1C36F80C603E8016F47F4F38
:20487000F5D0022E40F20681B6EB0A0617D0B6EB0A0611D04FF44064361B01D0B61E012E44
:2048900040F2DD80361FFBD040F2FA34361BE9D0761E00F0E680F61E00F0D980A7E01E887B
:2048B000A64240F0CC800EF1010EBEF1020FCEDD58E0981C20F80C9011E0C96E0A680020B1
:2048D00010710CE0488E388041F20441401A01D0801F01D12C6045E041F206403880C5F81A
:2048F00000803FE06E488078FF2810D0C5F800806C4A12681C214143931C5B5A3B8013F400
:204910007F4FF5D040F204441B1B012B664876D94FF47F741B1B15D00A3B012B17D940F633
:20493000F6341B1B032B84BF5B1F012B12D99B1E012B64D940F2FD341B1B0BD05B1E012BCA
:2049500005D909E0921C41F20143535202E0921C22F80190286005E0002013F0DFF885206F
:2049700014F0E4FABDE8FC4750480078012108F01DBD4F4C4F4A25684F4800680023CDE9C0
:20499000002355F8089F4D4B0222C8474C49088035E0092E4ED14B490A685089002849D07D
:2049B000494908780EF0C2FE0021002014F062FA0020207023E04888388002280DD940F2F9
:2049D0000442801A1BD040F6FC72801A05D0083815D04FF47F72801A2CD1887B801CC2B2E6
:2049F000B52AA8BF662088730020488007E0002013F094F88420BDE8F64714F097BABDE8E2
:204A1000F3874888388010F47F4FFAD040F20442801AF4D040F6FC72801ABAD00838EED04C
:204A30004FF47F72801AA4D004E04888388010F47F4FFAD0002013F071F88520DBE7807B2E
:204A5000012818BF042801D0A7F8009047E7807B01287FF42EAF9A1C41F2024122F80C1016
:204A70003DE75078C2067FF528AF886D016800220A7134E7002013F051F88320BBE700BFA1
:204A90006F4F0020204F002071870100504F00202C1F00203220002065250000C16C00004D
:204AB000684E0020F81F0020915C00006E4F0020F04E002002000080EC4E0020154B010074
:204AD000424F002004200020714F0020BB482DE9F84F0025BA4CB849056094F8E20000286A
:204AF00000F06581012800F02F81B64E02283CD0032840F05C8151F8250CD4F8B81000295E
:204B1000A0F5C060C4F8D400B8BF49420028B8BF4042814226DA4FF08057D7F8A401456823
:204B3000B4F8BC0030214FF47F42082300903046A847D7F8A4014568B4F8C00004214FF493
:204B5000F802122300903046A847D7F8A401B4F8D070456820214FF440620A2330460097B4
:204B7000A847012584F8D8501CE151F8258C13F0CAFC2F4600B901273946934F386800282D
:204B9000FCD0B146012609F10409D9F82CA03E6009B113F0BEFCCAF30720C4F8BC0013F003
:204BB000B2FCAA4600B9B2463B68002BFCD0D9F800B0BAF1000F3E6001D013F0AAFCCBF3EB
:204BD0008440C4F8C00013F09EFCAA4600B9B2463B68002BFCD0D9F81C90BAF1000F3E60D8
:204BF00001D013F096FCC9F38120C4F8D000B8F5C061C4F8B81000F09C8094F8D80068B973
:204C1000C4F8D410D4F8C000C4F8C800D4F8BC70C4F8C470D4F8D030C4F8CC30D4F8D400C8
:204C3000D4F8BC30002854BF02226FF0010204F1C8010F6800EB40008018421000EB9272B2
:204C500007EBA2000860D4F8C810C4F8C43000291CDD1E293CDDD4F8CC0030B93429B4BF21
:204C700015391E21C4F8C81025E02A29BABFD4F8C8000B381E20C4F8C800D4F8C4003F28A2
:204C9000B4BF401C3F20C4F8C4001FE0D4F8CC00032812D011F10B0FC6BFD4F8C8000B3042
:204CB000301CC4F8C800D4F8C4000028C4BF401E051CC4F8C450032508E011F1150FC6BFCF
:204CD000D4F8C8001530301CC4F8C800C4F8CC504FF08057D7F8A401B4F8C43030214FF485
:204CF0007F424568374800930823A847D7F8A40104214FF400321123456832480096A8471C
:204D1000B4F8C860D7F8A40104214FF4F802122345682C480096A847D7F8A40120214FF406
:204D300040620A23B4F8CC60456826480096A84701E084F8D85040F2FF50404502D8801C1B
:204D500040452FD2082030E051F8251C1F4F4BF2F5204843060A3868C0F3814001280CD186
:204D70001B4800680068804710F0FAFB13F0D7FB3111C010484306EBE03694F8E50030B961
:204D90001448006820F07F403618760801E084F8E5501148310C0660012741600F4D87600A
:204DB000287808B90B2000E0052084F8E40004F043FDBDE8F88FC0462D400C402C500C400B
:204DD000540C002000A00C4000800C40B43F0050EC010010102009403C600C40D59E010076
:204DF0002DE9FC47C1480278112A47D1C04B1878002107F0BBFF04000AD1002012F08EFE7A
:204E1000002012F08BFEBDE8F647FF2014F08EB804F14C0898F8000008B90121E172451C1C
:204E300088F80050E9B2E07DD8F80490814209F1400A24D299F80E00401C89F80E00D8F8DF
:204E500008104A7AD9F80810520802F0010282F00102101889F80E00A08B01EB8001C9F8A9
:204E70000810627DD30609D5628B98F8003000FB1320C03001EB8001CAF8201033E104F141
:204E9000280609F174074ED1A07F3875E17F7975D8F808205278930710D5E27FD30604D5D2
:204EB000C01E387501F0EF0179750020386089F873000022797D01F0FE010EE1900607D474
:204ED000F08B00B1F07EF875F08B00B1306AF861D8F808004178C8070BD5F18B00291CBFDC
:204EF000306A002805D0F861B07E884238BF0146F975E07FC1060CD5D9F83800317800EB6A
:204F10008100C9F83800A18CC03100EB8100022101E000200021386089F873100022E17F1A
:204F300001F0FC01D9E0D8F808104978CA0716D5787D397D00F0F700891E01F03F01820762
:204F50005CBF891D40F00200420644BF491E00F0BF00787539750020F861F875C3E0A28C9B
:204F70002D1AD9F838008907EDB200EB820075D5012D41D1C9F83800A07F00F03F00A0774D
:204F90003875801EE17F7975387501F0F7017975D8F8082053785A0704D5801F387501F0AA
:204FB000FD01797500233A7DF17E9AF8000002F03F028A18521CC0F3800192B200F003006C
:204FD00010F092F900F5FA70A0841E21A08C90FBF1F18AB2797D01F0FE01204607F0FAFF63
:204FF000002089F87300F08B00B1F07EF875F08B00B1306AF86176E0022DC9F8380026D1F2
:20501000E07FC10706D5387D811F3975787D00F0FE00787500233A7DF17E9AF8000002F0DE
:205030003F028A18521CC0F3800192B200F0030010F05AF900F5FA70A0840022797D01F0C5
:20505000FE01204607F0C6FF707FAAF81A00707F401C451BE8B2012812DD07E0C9F8380037
:20507000E17F707F451BCA06E8B209D5A28CD9F83810C03201EB82013960022189F87310C1
:2050900088B3F969F27EE37FA57F1144F96159084FEA410AD8F8081049784A0748BF2AF0BE
:2050B000020A890748BF2AF0080A012807D1307FF8752AF0100A0020386089F8730050467E
:2050D00011F02AF905F0C00500F03F0005433D7587F815A000220AF0FC01204602B0BDE8AF
:2050F000F04707F077BFBDE8F38700BF6F4F0020322000202DE9F04F09AFADF13C0D089082
:205110000A92388809911E46ADF81800101C08BF002000F06C81017800274FF0010B401C31
:205130004FF0FF39B846DA460A9058E1252940F04D810178401C0A902D2918BFADF80680E4
:2051500004D10178ADF806B0401C0A9030291CBF4246434604D10178401C5A465B460A90D6
:205170002A29CDF800804D4617D1049330680A9BCDF80890C01C20F00300001D306050F8F7
:20519000044C1978002C009403F101000A9018D5ADF806A06442009413E044460AE0600096
:2051B00000EBC4004018A0F130040A9801780094401C0A90302901DB3A29F0DBCDF80890AE
:2051D00004932E2929D10178401C2A290A9011D13168CDF80880C91C21F00301091D31609C
:2051F00051F8045C002D48BF454601782B46401C0A9011E0454643460AE0680000EBC50050
:205210004018A0F130050A9801782B46401C0A90302901DB3A29F0DB02930AB1224604922D
:205230006C2904D04C2918BFADF8048004D10178ADF804A0401C0A900BA8CDF80C800FAB35
:2052500007906429059379D0692977D0BDF818C0752965D0782961D06F295DD0702946D0BA
:20527000632936D073291AD00A98401E0A900998012812D961490C68B5F1FF3F03D0A842F8
:2052900088BF6D1C00D8099D029508A80AA932466B46A0473F18039865E0454617E0306855
:2052B000C01C20F00300001D306050F8040CBCF1010F014608B94FA00146079112F08AFFCC
:2052D0000390B5F1FF3F4FD0A8424DD9039528464AE03068C01C20F00300001D306010F8AC
:2052F000040C8DF82C005D46039558463CE0082035680490E81C20F00300001D306050F883
:20531000041C082210230FA80CF01CFB401E079040210170079823E0082302E0102300E0AD
:205330000A233068C01C20F00300001D306050F8041CAA42BCBF2A1C04920DE03068C01CF0
:2053500020F00300001D306050F8041CAA42BCBF2A1C04926FF009030FA80CF0F3FA079030
:205370000599081A0390009C241ABDF8065000945DB906E008A8202109AA11F05AFD7F1CBE
:20539000009C641E0094F5D50398401EB0F1FF3F03900FD1BDF8060001281CD10098401E6F
:2053B000009018D408A8202109AA11F042FD00987F1CF4E70798017809AA08A811F039FDBD
:2053D0000798401C079003987F1CDEE708A809AA11F02FFD7F1C0A980178401C0A900029CB
:2053F0007FF4A4AE089808B14146017038460FB0BDE8F08F286E756C6C2900C048A0010071
:205410002DE9F84306460D46707801071DD4D6F80310B54821F07F41203981423FBFD6F814
:20543000061021F07F412039814228BF112033D2B01DF11C88425FD3B07A002818BF012814
:2054500003D0022818BF032856D1B07C002818BF012803D0022818BF03284DD1307D0128CF
:2054700018BF022803D0832818BF032844D1707A10F0070070723FD03078012107F076FC71
:2054900004000AD100200FF025FD044613F0AAF9844214BF07200D2024E104F1540200208F
:2054B00016606072207A012808BF0C20F4D00021E17500200121737A01FA00F73B4208D02D
:2054D000E37D5B1CE375DBB2012B04BF00F125032376401C0328EEDB7078C10618D5317DC5
:2054F000012909D1102810D012280CD0132804D0152804D01D2804D09FE0002006E0042088
:2055100004E0012002E0022000E00320A0735EE0FF20A073307D02281EBF717801F003005B
:205530000328E9D00B07E7D408B18806E4D4480707D516F10C00DFD0F07A002818BF01282C
:205550007BD100206075E077707810F0030F27D1207D00F03F0020757078810605D451684F
:20557000002904BF9068002801D018216175707881060DD4307D832818BF032804D1182078
:2055900060750120E07703E0607D40F0010060757078410717D5E07F40F00200E07712E0F2
:2055B000217DC0074CBF0120022001F03F0141EA80111820607521750920E07770784107E8
:2055D00044BF0B21E177207D00F0C000A07796F913007F2806BF454800780EF023F804F1AF
:2055F0002907387045B14248416B48693978026801EB4101505C2870B07ADFF8F880DFF809
:20561000F8903E4D002818BF012809D17875B07AC10758BFC8460622414604F130002FE07E
:2056300005F10D0013F032FCB8B1B07AC10754BF4946414612F00AFD08B9122052E0B07A4A
:20565000C10754BF49464146062204F1300012F031FCB07A00F0010006E00622E91D04F1A9
:20567000300012F027FC03207875B07A00F001002870B17AC80758BFC84606224146681CB0
:2056900012F018FC7078410729D5B07A022818BF03281BD1F17A06F10C0201F001012846A3
:2056B0000CF08AFFFF2811D01E214843054405F10D0013F0EBFB48B9E91D05F10D0013F041
:2056D000DDFB0120B8750622E91D04E0F07AB875062206F10C0104F1380012F0EBFB012089
:2056F00060720020BDE8F283E0FFFF00714F002070A00100344E00202C4E0020D01B002078
:205710002DE9FE4F0F469E4C0168E16241688068E0609C48A16080479B48E16A0160A16816
:20573000DFF884B24160E168DFF8788281609749002FA246C1606ED03D68E8788DF80800C8
:2057500028798DF8090002A813F090FBA86808B18F490160E86808B18E4901608E4C287815
:20577000207068786070A878BE68A0703178E1707368636072696261B168A160F168E16099
:2057900031692A6A21617B68A2632E69E6621868A06168692063A8696063786886681EB934
:2057B000002012F0BBF900E026627868C06818B9002012F0B3F900E060627868006918B938
:2057D000002012F0ABF900E0A0627868406818B9002012F0A3F900E0E0612869E062F868A6
:2057F00081680E6806B96E4E6C494FF001094E60C66881F801902EB9002012F08FF9F868EA
:20581000454601E045462E6000685C46FE68A0617068E06106E0002012F080F94FF001099F
:205830005C464546286861494668621C04F114035020B04710B1286880688047DAF8080078
:2058500080475C4F0026834669467E7058483E7004222061304610F0A9FD0098B0F5801F4D
:205870000CD020B911F05EF905F0C4FA08E00FF09BFC12F0A5FC0420788001E011F052F9EE
:205890004D4FB0462868C7F808808069A660804778604A48468080F80090142012F08EFDE0
:2058B000FF211422A06212F0A7FFE01CFF21022212F0A2FF142012F081FD414908600868DF
:2058D0001422314612F098FF3046FBF799F948460FF036FF3B480188FF2906D10221018007
:2058F0007822001D314612F087FF032013F0BAFA042013F0B3FA052013F0ACFA062013F03D
:20591000A5FA07200DF068F92F4E0820307006F12C0012F047FE3178062010F0ABFB0EF031
:20593000ADFF263605200621324612F031F838B14046C0F10501401C06F8011B0628F8DBC3
:205950002F68224909200DF10A0201AB7D68087010204146A847A06ADAF80C10E2690A27DF
:205970000A309DF80A307F1E00F8013BF9D1921E5846E261884702F01DFFBDE8FE8FC046CD
:20599000E00E002041490010F8440020AC8F0100096B0100057E0100D8100020D8140020AA
:2059B000AF120100841500204C120020A57301007D7E010080150020A41F00208C10002075
:2059D000182000207C0F0020680D0020372000202DE9FC47DFF8A4A20F460546F80B80F01F
:2059F0001681DFF87482B80880F007819D4EDFF87892B80F80F0B580B80B80F0A2803809AD
:205A1000C0F02181082012F0A3FD002840F09480802012F09DFD002840F08E80684609F0A5
:205A300027FA012803D10098002800F0858000250124E8B212F07EF948B1837A3BB184724E
:205A500090F9090004FA00F0C0B210F0ABFA6D1C032DEED34546032028746868703012F069
:205A700097FE7E480023016803607D4950F8082C98461A4640F8088C05F1340012F094FEC2
:205A9000404607F052FD3068006B80470146AA68A869891A090BC1F1FF3282422CBF084461
:205AB0004FF0FF30A8612E7F1EB1E968B0EBC12F1ED911F0E3FD414600B12146081C14D088
:205AD000484640F60901018041464180427B64F303024273027B61F303020273416012F063
:205AF0000DFC418811F4406FFBD02C774146A9610FF054FD5D48444641460460022011F084
:205B1000E9F9022010F01AFA112007F00FFD287818B96868383012F051FE5548007810B951
:205B30000E2007F003FD687F18B16C77052010F005FA2C744F4868610DF0C6F927F0080797
:205B500081E046467C36366846B1B06830B13069B6F92C10B46800222023A04727F40057AA
:205B700071E03446606D016804208847D0B1287CC0B1464608363068A0B106462068006B99
:205B90008047E968801BE860000B8842E86002D240184008E86040F6C41181422CBFB0F5C3
:205BB000FA7FE96049460D310978002011F00F0F18BF0120464660B9688C40F609018142F2
:205BD00007D1AC6928466FF4807100224FF00073A047294906F13400002212F0E5FD022086
:205BF00030740DF071F96C69002128464FF080630A46A04727F0005725E005F01BFE4546C1
:205C100005F17406306808B927F002071BE012F0C5FD51460E6896B1B16A89080FD2B46ACD
:205C3000B16AA143B16213F00DF9B06848B130692246B6F92C10B4680023A04701E013F032
:205C500001F927F4804727B1504639462C3012F0BDFDBDE8FC87C046A815002014100440E0
:205C7000BD6E01008C010010481F0020000004607E9F0100ADCC00004184000028160020A6
:205C9000A3488078FF2800D170472DE9F84F12F079FA054605F217100178012908BF417804
:205CB00000F0A98005F17400817B022903D105F174020020907305F59274E18911B1207B00
:205CD00007F074FB6889DFF84CC2DFF84C92288105F58D779CF80A009CF807209CF80C1013
:205CF0009CF80B30B7F800E000EB0208884498449CF80D309844C644A7F800E0BB88B7F871
:205D100002E05B1CBB808644A7F802E04FF01C0E2368E3B1D9F8006095F806B006F10E0A89
:205D30000EFB0BFB0E361AF80BA033F81AB0C34423F81AB095F806A00EFB0AFA16F80A60AA
:205D500003EB4606B6F84AA08244A6F84AA0002A04BF9CF80B20002A05D1002904BF9CF8E7
:205D70000D10002926D02989E88941180026A9812E74287F012804BF698CE9839CF80100E0
:205D900068B1012105F1740229779078002804BF917B002903D1107F08B9698CE983207D62
:205DB000002832D0022804BF9CF80B00002827D1002129E0E98340B1002028740126287FEC
:205DD000012806D1698CE98303E0F888401C0226F880A8892989814206D08842CED2081AEB
:205DF00041F2AB029042C9DA287C08B1052901D0082100E03E212846BDE8F44F11F08ABBDE
:205E10009CF8090008B10221217544489CF80F2001682868D30709D5DCF81020C26001F14B
:205E30001400A97949010022425011E001F11402A979490152582261D9F80010AB7901F195
:205E500008020EFB03F3D158C1600020E8832877334841690A78900703D59CF80E00802855
:205E700000D1812005F1740A8AF800002846FDF7B9F9012849D0012128460BF0A9F82846BA
:205E900011F067F9FDF79EFE01283ED000F0CEFBDFF89090D9F80000B8B3B9F80400AA7906
:205EB00090421CBF4FF6FD7188422ED11E48007A12F08CFA040028D02670A879608095F821
:205ED0003900207195F8960160719AF90000A071A4F808807888608112F068FA050004D10C
:205EF000FF2020734FF0FF3008E02878207312F0D9FF0146A86812F0A1FF80082061204615
:205F1000D9F80010BDE8F44F0847BDE8F18F00BF684E00205C4D0020F81F0020FC1F002064
:205F300070A00100D01F00209C1400202DE9F04F8246DAF800600C465FEA0208ADF11C0DA6
:205F500014BF00214FF0FF3106F14800834612F072F9002818BF0B2040F00D81002588487C
:205F7000F460B8F1010F057007D06570022010F095FA062010F092FA01E001206070207816
:205F9000012840F2AB80801E012868D9801E012833D9801E012800F2DF8012F0FFFB0690E6
:205FB0004FF0805000F5EE77D0F8DC01A378466A009321782846062908BF01200190012095
:205FD0000290A068228AE1686368B0478146069812F038FFB9F1000F40F0C080B8F1000FE1
:205FF00002D011F013FF02E0504610F005FC002800F0A4803868806A2AE012F0CFFB069001
:206010004FF0805000F5EE77D0F8DC01012306680093A168A27860682478AC46042C08BFCD
:206030009C466346B0478146069812F00BFFB9F1000F40F09380B8F1000F02D011F0E6FEF2
:2060500002E0504610F0D8FB002877D03868406880474A49C1F8B0510D6081467EE012F086
:206070009DFB06904FF0805000F5EE76D0F8DC01E38A87690093E0680190208B0290A078B7
:206090000390207D04900121059122782846022A08BF081CE1786268A368B84781460698C3
:2060B00012F0D0FEB9F1000F58D1B8F1000F02D011F0ACFE02E0504610F09EFB00283DD0A3
:2060D0003068006A80475FEA000947D13068C569A168E28A2369E078A847BEE712F05EFB6F
:2060F00006904FF0805000F5EE76D0F8DC01E38AC7680093E0680190208B0290A0780390FD
:20611000207D2946049001200590257805B9014608466268A368E178B8478146069812F095
:2061300091FEB9F1000F19D1B8F1000F02D011F06DFE02E0504610F05FFB08B914201AE066
:206150003068406980475FEA000907D1306802692169E078904780E74FF0FF39B8F1010FAA
:2061700005D002200FF0EAFE06200FF0E7FE584612F024FB484607B0BDE8F08F5045024028
:20619000292000202DE9FC4704003BD0DFF8149299F80000092818BF0A2804D00B281CBFF4
:2061B0000C280D2801D12120F9E0A078002106F0DDFD050008BF4220F6D0A1787A48017031
:2061D000687AF8B1A97B012904D1B4F8030008B1812817DA6078402814DA284609F041FB2E
:2061F00005F14806B06808B90720D8E0B46105F12207A87B00281CBF0128042813D16B484D
:20621000007808B91220CAE069494A78824208BF0920F8D07A7F05F13801802004F08EFF20
:2062300008B10B20BBE0607808B91120B7E02078DFF880A1012878D1287A002101282973E4
:206250004FF00A0811D19AF8000040210FF0BAFDB4F8030008FB00F1402011F053F8010002
:2062700015D1B1696079487198E001202872E972697307F0FBFD68604F494161F068417810
:20629000C80605D5284601F027F801000BD086E00020388012F072F885F821002846FDF742
:2062B000C9FE01007BD1F0684178C8071CD505F14207B98800291CBF3068002814D03A780F
:2062D0008A4211D20F2011F045FC68B1F06801788DF80010B888ADF801000F2039788DF8C4
:2062F0000310694611F01AFA99F80010002955D1324A107800281EBFF168487810F0030F93
:206310001CBF2F4810F0AEFE112089F8000001202872B4F8030008FB00F1402010F0F2FF0E
:2063300001003CD100F082F938E0287A002836D02449254E0868804704469AF80000402198
:206350000FF040FD0020287212F056F9012804D012F02CF86968884217D11C4A1C481368FB
:20637000006853F8385F0021A84740F2014012F095FD18491848086001219AF8000007F0D8
:2063900015F831682046884708E0284610F038FC316820468847284611F042FE0020BDE846
:2063B000F68700BF6F4F0020332000207B4F0020684E00206E4F0020DD700000784E002070
:2063D000CC470020E80E0020EC0E0020F04E0020EC4E0020204F0020C16C00002DE9F24F7F
:2063F000054684B02868D0F80490D9F8080012F021FD002805F59A7B40F00781296804980D
:20641000096912F01BFD05F1820680463078002805F12E0440F6C41A00F0898070882989ED
:20643000401E80B212F042FD3178074602290CBFBBF83000A08878430090286801690098A7
:206450000AFB0011049812F0F5FC002869D07F1C03973078009F02280CBFBBF83000A088AA
:20647000C7190398029000210AFB07F0009001912868016900984118049812F0DBFC90B11F
:206490000098A8EB000830890AFB00F2B8FBF2F102FB1188B8F1000F18BF491C48430190CD
:2064B0000398091802912989029841186981F1880198CF19C7193078012849D105F18601AC
:2064D000284611F03BF970896989688400202877E883E8894118A9813289A188B0898A422B
:2064F00004BF2189884202BF7189E388994207D0000900907389A9795208002012F0E2FC6C
:20651000A088ABF83000307920703089A0807089E080B0892081284611F02AFB02203070D5
:2065300016E0307801281CBF002011F0F7FAA0880AFB00F0B8FBF0F700FB1788B8F1000F8E
:20655000288918BF7F1C38186881BFB2A08847432968344A08690AFB0700C9F808000B78D4
:20657000802B10D1C860D2F83080A388D8F8000043436420B3FBF0F3D9F814000AFB03F367
:20659000A3F5966343610B78402B36D1AF614FF4C873688A4743B7FBF3F0401C6861D9F82C
:2065B0000830181AC9F808006B69DBF8000000EB4300D9F8143058611B4833780068022B52
:2065D0000CD1AB795B0100F1140656F8038026780AFB068800F1140646F80380AB79126BD4
:2065F00000EB4316A388106843436420B3FBF0F30AFB03F0A0F59660F061D9F80800886074
:20661000E07AA07228460EF08CFF6989A88912F04DFCE989814238BF0120ABF82E0005B0C6
:20663000BDE8F08F70A00100FC1F00202DE9F84F874E706884B0009020B905B0BDE8F04F9A
:2066500012F0F4BB0178DFF80C92DFF80C82834FDFF80CB201291CBF0229042941F64C5A85
:2066700004D0402918BF80296FD0E8E011F0C4FF0028FAD00098007804F09AFA054611F0AC
:2066900028FF04469BF80100002840D000F018FC11F078FD0290016800914968019194B11F
:2066B000009928460BF044FC02280CD029780129DBD118B912F0F6FB5044A0600120B07072
:2066D00011203870B5E00098017880290CD108223A70019898F80010406901291ABFD9F81B
:2066F00028100A7801220BE007203870019898F80010406901290EBF0122D9F828104A782C
:20671000C2720298817900988BF8021092E0002DABD000992878A94208D1012802D1002C35
:2067300003D192E0002011F0F9F982E001289CD1002CF6D012F0B6FB00F5C241A068A8317A
:2067500012F078FB002870D16BE09BF80100002857D000F0B5FB11F015FD04462068019007
:2067700045689BF8020011F00DFD039011F04AFF10F0070F21D0B07804F01AFA009011F017
:20679000A8FE0290C8B1019900980BF0D1FB022813D000990A78012A0CD128B912F082FBAF
